{
  "_format": "hh-sol-artifact-1",
  "contractName": "chainLinkWeatherData",
  "sourceName": "contracts/chainLinkWeatherData.sol",
  "abi": [
    {
      "inputs": [],
      "stateMutability": "nonpayable",
      "type": "constructor"
    },
    {
      "anonymous": false,
      "inputs": [
        {
          "indexed": true,
          "internalType": "bytes32",
          "name": "id",
          "type": "bytes32"
        }
      ],
      "name": "ChainlinkCancelled",
      "type": "event"
    },
    {
      "anonymous": false,
      "inputs": [
        {
          "indexed": true,
          "internalType": "bytes32",
          "name": "id",
          "type": "bytes32"
        }
      ],
      "name": "ChainlinkFulfilled",
      "type": "event"
    },
    {
      "anonymous": false,
      "inputs": [
        {
          "indexed": true,
          "internalType": "bytes32",
          "name": "id",
          "type": "bytes32"
        }
      ],
      "name": "ChainlinkRequested",
      "type": "event"
    },
    {
      "anonymous": false,
      "inputs": [
        {
          "indexed": true,
          "internalType": "address",
          "name": "from",
          "type": "address"
        },
        {
          "indexed": true,
          "internalType": "address",
          "name": "to",
          "type": "address"
        }
      ],
      "name": "OwnershipTransferRequested",
      "type": "event"
    },
    {
      "anonymous": false,
      "inputs": [
        {
          "indexed": true,
          "internalType": "address",
          "name": "from",
          "type": "address"
        },
        {
          "indexed": true,
          "internalType": "address",
          "name": "to",
          "type": "address"
        }
      ],
      "name": "OwnershipTransferred",
      "type": "event"
    },
    {
      "anonymous": false,
      "inputs": [
        {
          "indexed": false,
          "internalType": "uint256",
          "name": "requestNumber",
          "type": "uint256"
        }
      ],
      "name": "RequestFullfilled",
      "type": "event"
    },
    {
      "anonymous": false,
      "inputs": [
        {
          "indexed": true,
          "internalType": "bytes32",
          "name": "requestId",
          "type": "bytes32"
        },
        {
          "indexed": false,
          "internalType": "uint256",
          "name": "Rain",
          "type": "uint256"
        }
      ],
      "name": "RequestRain",
      "type": "event"
    },
    {
      "anonymous": false,
      "inputs": [
        {
          "indexed": true,
          "internalType": "bytes32",
          "name": "requestId",
          "type": "bytes32"
        },
        {
          "indexed": false,
          "internalType": "uint256",
          "name": "WindSpeed",
          "type": "uint256"
        }
      ],
      "name": "RequestWindSpeed",
      "type": "event"
    },
    {
      "inputs": [],
      "name": "RainData",
      "outputs": [
        {
          "internalType": "uint256",
          "name": "",
          "type": "uint256"
        }
      ],
      "stateMutability": "view",
      "type": "function"
    },
    {
      "inputs": [],
      "name": "acceptOwnership",
      "outputs": [],
      "stateMutability": "nonpayable",
      "type": "function"
    },
    {
      "inputs": [
        {
          "internalType": "bytes32",
          "name": "_requestId",
          "type": "bytes32"
        },
        {
          "internalType": "uint256",
          "name": "_rainData",
          "type": "uint256"
        }
      ],
      "name": "fulfillRainData",
      "outputs": [],
      "stateMutability": "nonpayable",
      "type": "function"
    },
    {
      "inputs": [
        {
          "internalType": "bytes32",
          "name": "_requestId",
          "type": "bytes32"
        },
        {
          "internalType": "uint256",
          "name": "_windSpeed",
          "type": "uint256"
        }
      ],
      "name": "fulfillWindspeed",
      "outputs": [],
      "stateMutability": "nonpayable",
      "type": "function"
    },
    {
      "inputs": [],
      "name": "getLat",
      "outputs": [
        {
          "internalType": "string",
          "name": "",
          "type": "string"
        }
      ],
      "stateMutability": "view",
      "type": "function"
    },
    {
      "inputs": [],
      "name": "getLong",
      "outputs": [
        {
          "internalType": "string",
          "name": "",
          "type": "string"
        }
      ],
      "stateMutability": "view",
      "type": "function"
    },
    {
      "inputs": [],
      "name": "getRainData",
      "outputs": [
        {
          "internalType": "uint256",
          "name": "",
          "type": "uint256"
        }
      ],
      "stateMutability": "view",
      "type": "function"
    },
    {
      "inputs": [],
      "name": "getWindSpeedData",
      "outputs": [
        {
          "internalType": "uint256",
          "name": "",
          "type": "uint256"
        }
      ],
      "stateMutability": "view",
      "type": "function"
    },
    {
      "inputs": [],
      "name": "owner",
      "outputs": [
        {
          "internalType": "address",
          "name": "",
          "type": "address"
        }
      ],
      "stateMutability": "view",
      "type": "function"
    },
    {
      "inputs": [
        {
          "internalType": "string",
          "name": "_lat",
          "type": "string"
        },
        {
          "internalType": "string",
          "name": "_lon",
          "type": "string"
        },
        {
          "internalType": "string",
          "name": "date",
          "type": "string"
        },
        {
          "internalType": "string",
          "name": "hour",
          "type": "string"
        }
      ],
      "name": "requestWeatherData",
      "outputs": [],
      "stateMutability": "nonpayable",
      "type": "function"
    },
    {
      "inputs": [
        {
          "internalType": "address",
          "name": "to",
          "type": "address"
        }
      ],
      "name": "transferOwnership",
      "outputs": [],
      "stateMutability": "nonpayable",
      "type": "function"
    },
    {
      "inputs": [
        {
          "internalType": "address",
          "name": "userAddress",
          "type": "address"
        }
      ],
      "name": "updateUserWindSpeed",
      "outputs": [],
      "stateMutability": "nonpayable",
      "type": "function"
    },
    {
      "inputs": [
        {
          "internalType": "address",
          "name": "",
          "type": "address"
        }
      ],
      "name": "userRainData",
      "outputs": [
        {
          "internalType": "uint256",
          "name": "",
          "type": "uint256"
        }
      ],
      "stateMutability": "view",
      "type": "function"
    },
    {
      "inputs": [
        {
          "internalType": "address",
          "name": "",
          "type": "address"
        }
      ],
      "name": "userWindSpeedData",
      "outputs": [
        {
          "internalType": "uint256",
          "name": "",
          "type": "uint256"
        }
      ],
      "stateMutability": "view",
      "type": "function"
    },
    {
      "inputs": [],
      "name": "windSpeed",
      "outputs": [
        {
          "internalType": "uint256",
          "name": "",
          "type": "uint256"
        }
      ],
      "stateMutability": "view",
      "type": "function"
    },
    {
      "inputs": [],
      "name": "withdrawLink",
      "outputs": [],
      "stateMutability": "nonpayable",
      "type": "function"
    }
  ],
  "bytecode": "0x608060405260016004556040518060600160405280603981526020016200346060399139600890805190602001906200003a929190620003f4565b506040518060400160405280602081526020017f62333461366239633438343234323066386366383531613464653566346636668152506009908051906020019062000088929190620003f4565b503480156200009657600080fd5b50338060008073ffffffffffffffffffffffffffffffffffffffff168273ffffffffffffffffffffffffffffffffffffffff1614156200010d576040517f08c379a0000000000000000000000000000000000000000000000000000000008152600401620001049062000505565b60405180910390fd5b81600660006101000a81548173ffffffffffffffffffffffffffffffffffffffff021916908373ffffffffffffffffffffffffffffffffffffffff160217905550600073ffffffffffffffffffffffffffffffffffffffff168173ffffffffffffffffffffffffffffffffffffffff1614620001955762000194816200023a60201b60201c565b5b505050620001bd73326c977e6efc84e512bb9c30f76e30c160ed06fb6200036c60201b60201c565b620001e27340193c8518bb267228fc409a613bdbd8ec5a97b3620003b060201b60201c565b7f6361393833363663633733313439353762386330313263373266303561656562600c81905550600a670de0b6b3a7640000600162000222919062000560565b6200022e9190620005f0565b600d81905550620006ff565b3373ffffffffffffffffffffffffffffffffffffffff168173ffffffffffffffffffffffffffffffffffffffff161415620002ac576040517f08c379a0000000000000000000000000000000000000000000000000000000008152600401620002a39062000678565b60405180910390fd5b80600760006101000a81548173ffffffffffffffffffffffffffffffffffffffff021916908373ffffffffffffffffffffffffffffffffffffffff1602179055508073ffffffffffffffffffffffffffffffffffffffff16600660009054906101000a900473ffffffffffffffffffffffffffffffffffffffff1673ffffffffffffffffffffffffffffffffffffffff167fed8889f560326eb138920d842192f0eb3dd22b4f139c87a2c57538e05bae127860405160405180910390a350565b80600260006101000a81548173ffffffffffffffffffffffffffffffffffffffff021916908373ffffffffffffffffffffffffffffffffffffffff16021790555050565b80600360006101000a81548173ffffffffffffffffffffffffffffffffffffffff021916908373ffffffffffffffffffffffffffffffffffffffff16021790555050565b8280546200040290620006c9565b90600052602060002090601f01602090048101928262000426576000855562000472565b82601f106200044157805160ff191683800117855562000472565b8280016001018555821562000472579182015b828111156200047157825182559160200191906001019062000454565b5b50905062000481919062000485565b5090565b5b80821115620004a057600081600090555060010162000486565b5090565b600082825260208201905092915050565b7f43616e6e6f7420736574206f776e657220746f207a65726f0000000000000000600082015250565b6000620004ed601883620004a4565b9150620004fa82620004b5565b602082019050919050565b600060208201905081810360008301526200052081620004de565b9050919050565b6000819050919050565b7f4e487b7100000000000000000000000000000000000000000000000000000000600052601160045260246000fd5b60006200056d8262000527565b91506200057a8362000527565b9250817fffffffffffffffffffffffffffffffffffffffffffffffffffffffffffffffff0483118215151615620005b657620005b562000531565b5b828202905092915050565b7f4e487b7100000000000000000000000000000000000000000000000000000000600052601260045260246000fd5b6000620005fd8262000527565b91506200060a8362000527565b9250826200061d576200061c620005c1565b5b828204905092915050565b7f43616e6e6f74207472616e7366657220746f2073656c66000000000000000000600082015250565b600062000660601783620004a4565b91506200066d8262000628565b602082019050919050565b60006020820190508181036000830152620006938162000651565b9050919050565b7f4e487b7100000000000000000000000000000000000000000000000000000000600052602260045260246000fd5b60006002820490506001821680620006e257607f821691505b60208210811415620006f957620006f86200069a565b5b50919050565b612d51806200070f6000396000f3fe608060405234801561001057600080fd5b50600436106101005760003560e01c806379ba509711610097578063bbd87cd711610066578063bbd87cd714610251578063c568dd471461026f578063dc5975c31461028b578063f2fde38b146102bb57610100565b806379ba5097146102015780638da5cb5b1461020b5780638dc654a214610229578063a487440a1461023357610100565b806339cf35ca116100d357806339cf35ca1461017757806347d3fa6d146101955780634f2279c2146101b357806368b59005146101e357610100565b8063153af33714610105578063195d4cbc14610121578063200abc331461013d57806328ae190214610159575b600080fd5b61011f600480360381019061011a9190611c2b565b6102d7565b005b61013b60048036038101906101369190611cc9565b610420565b005b61015760048036038101906101529190611e3c565b610469565b005b6101616104b7565b60405161016e9190611f22565b60405180910390f35b61017f6104c1565b60405161018c9190611f22565b60405180910390f35b61019d6104c7565b6040516101aa9190611fc5565b60405180910390f35b6101cd60048036038101906101c89190611cc9565b610559565b6040516101da9190611f22565b60405180910390f35b6101eb610571565b6040516101f89190611f22565b60405180910390f35b610209610577565b005b61021361070e565b6040516102209190611ff6565b60405180910390f35b610231610738565b005b61023b6108a3565b6040516102489190611fc5565b60405180910390f35b610259610935565b6040516102669190611f22565b60405180910390f35b61028960048036038101906102849190611c2b565b61093f565b005b6102a560048036038101906102a09190611cc9565b610a88565b6040516102b29190611f22565b60405180910390f35b6102d560048036038101906102d09190611cc9565b610aa0565b005b816005600082815260200190815260200160002060009054906101000a900473ffffffffffffffffffffffffffffffffffffffff1673ffffffffffffffffffffffffffffffffffffffff163373ffffffffffffffffffffffffffffffffffffffff1614610379576040517f08c379a000000000000000000000000000000000000000000000000000000000815260040161037090612083565b60405180910390fd5b6005600082815260200190815260200160002060006101000a81549073ffffffffffffffffffffffffffffffffffffffff0219169055807f7cc135e0cebb02c3480ae5d74d377283180a2601f8f644edf7987b009316c63a60405160405180910390a2827f53dc18fd972a2c03accb664cfa743929b2526dc9d10684c909cb741c4f3ab2bf8360405161040c9190611f22565b60405180910390a281600b81905550505050565b600a54601060008373ffffffffffffffffffffffffffffffffffffffff1673ffffffffffffffffffffffffffffffffffffffff1681526020019081526020016000208190555050565b83600e908051906020019061047f929190611a81565b5082600f9080519060200190610496929190611a81565b506104a384848484610ab4565b506104b084848484610c6f565b5050505050565b6000600b54905090565b600b5481565b6060600f80546104d6906120d2565b80601f0160208091040260200160405190810160405280929190818152602001828054610502906120d2565b801561054f5780601f106105245761010080835404028352916020019161054f565b820191906000526020600020905b81548152906001019060200180831161053257829003601f168201915b5050505050905090565b60116020528060005260406000206000915090505481565b600a5481565b600760009054906101000a900473ffffffffffffffffffffffffffffffffffffffff1673ffffffffffffffffffffffffffffffffffffffff163373ffffffffffffffffffffffffffffffffffffffff1614610607576040517f08c379a00000000000000000000000000000000000000000000000000000000081526004016105fe90612150565b60405180910390fd5b6000600660009054906101000a900473ffffffffffffffffffffffffffffffffffffffff16905033600660006101000a81548173ffffffffffffffffffffffffffffffffffffffff021916908373ffffffffffffffffffffffffffffffffffffffff1602179055506000600760006101000a81548173ffffffffffffffffffffffffffffffffffffffff021916908373ffffffffffffffffffffffffffffffffffffffff1602179055503373ffffffffffffffffffffffffffffffffffffffff168173ffffffffffffffffffffffffffffffffffffffff167f8be0079c531659141344cd1fd0a4f28419497f9722a3daafe3b4186f6b6457e060405160405180910390a350565b6000600660009054906101000a900473ffffffffffffffffffffffffffffffffffffffff16905090565b610740610e2a565b600061074a610ebc565b90508073ffffffffffffffffffffffffffffffffffffffff1663a9059cbb338373ffffffffffffffffffffffffffffffffffffffff166370a08231306040518263ffffffff1660e01b81526004016107a29190611ff6565b60206040518083038186803b1580156107ba57600080fd5b505afa1580156107ce573d6000803e3d6000fd5b505050506040513d601f19601f820116820180604052508101906107f29190612185565b6040518363ffffffff1660e01b815260040161080f9291906121b2565b602060405180830381600087803b15801561082957600080fd5b505af115801561083d573d6000803e3d6000fd5b505050506040513d601f19601f820116820180604052508101906108619190612213565b6108a0576040517f08c379a00000000000000000000000000000000000000000000000000000000081526004016108979061228c565b60405180910390fd5b50565b6060600e80546108b2906120d2565b80601f01602080910402602001604051908101604052809291908181526020018280546108de906120d2565b801561092b5780601f106109005761010080835404028352916020019161092b565b820191906000526020600020905b81548152906001019060200180831161090e57829003601f168201915b5050505050905090565b6000600a54905090565b816005600082815260200190815260200160002060009054906101000a900473ffffffffffffffffffffffffffffffffffffffff1673ffffffffffffffffffffffffffffffffffffffff163373ffffffffffffffffffffffffffffffffffffffff16146109e1576040517f08c379a00000000000000000000000000000000000000000000000000000000081526004016109d890612083565b60405180910390fd5b6005600082815260200190815260200160002060006101000a81549073ffffffffffffffffffffffffffffffffffffffff0219169055807f7cc135e0cebb02c3480ae5d74d377283180a2601f8f644edf7987b009316c63a60405160405180910390a2827f53dc18fd972a2c03accb664cfa743929b2526dc9d10684c909cb741c4f3ab2bf83604051610a749190611f22565b60405180910390a281600a81905550505050565b60106020528060005260406000206000915090505481565b610aa8610e2a565b610ab181610ee6565b50565b6000808551118015610ac7575060008451115b610b06576040517f08c379a0000000000000000000000000000000000000000000000000000000008152600401610afd906122f8565b60405180910390fd5b6000610b1c600c543063153af33760e01b611015565b90506000610b2b878787611046565b9050610b776040518060400160405280600381526020017f676574000000000000000000000000000000000000000000000000000000000081525082846110779092919063ffffffff16565b610bff6040518060400160405280600481526020017f7061746800000000000000000000000000000000000000000000000000000000815250610bef6040518060400160405280600c81526020017f686f75726c792c7261696e2c0000000000000000000000000000000000000000815250876110aa565b846110779092919063ffffffff16565b6000670de0b6b3a76400009050610c566040518060400160405280600581526020017f74696d657300000000000000000000000000000000000000000000000000000081525082856110d69092919063ffffffff16565b610c6283600d54611109565b9350505050949350505050565b6000808551118015610c82575060008451115b610cc1576040517f08c379a0000000000000000000000000000000000000000000000000000000008152600401610cb8906122f8565b60405180910390fd5b6000610cd7600c543063c568dd4760e01b611015565b90506000610ce6878787611046565b9050610d326040518060400160405280600381526020017f676574000000000000000000000000000000000000000000000000000000000081525082846110779092919063ffffffff16565b610dba6040518060400160405280600481526020017f7061746800000000000000000000000000000000000000000000000000000000815250610daa6040518060400160405280601681526020017f686f75726c792c77696e6473706565645f3130306d2c00000000000000000000815250876110aa565b846110779092919063ffffffff16565b6000670de0b6b3a76400009050610e116040518060400160405280600581526020017f74696d657300000000000000000000000000000000000000000000000000000081525082856110d69092919063ffffffff16565b610e1d83600d54611109565b9350505050949350505050565b600660009054906101000a900473ffffffffffffffffffffffffffffffffffffffff1673ffffffffffffffffffffffffffffffffffffffff163373ffffffffffffffffffffffffffffffffffffffff1614610eba576040517f08c379a0000000000000000000000000000000000000000000000000000000008152600401610eb190612364565b60405180910390fd5b565b6000600260009054906101000a900473ffffffffffffffffffffffffffffffffffffffff16905090565b3373ffffffffffffffffffffffffffffffffffffffff168173ffffffffffffffffffffffffffffffffffffffff161415610f55576040517f08c379a0000000000000000000000000000000000000000000000000000000008152600401610f4c906123d0565b60405180910390fd5b80600760006101000a81548173ffffffffffffffffffffffffffffffffffffffff021916908373ffffffffffffffffffffffffffffffffffffffff1602179055508073ffffffffffffffffffffffffffffffffffffffff16600660009054906101000a900473ffffffffffffffffffffffffffffffffffffffff1673ffffffffffffffffffffffffffffffffffffffff167fed8889f560326eb138920d842192f0eb3dd22b4f139c87a2c57538e05bae127860405160405180910390a350565b61101d611b07565b611025611b07565b61103c85858584611140909392919063ffffffff16565b9150509392505050565b60608383838460405160200161105f949392919061261a565b60405160208183030381529060405290509392505050565b61108e8284608001516111f090919063ffffffff16565b6110a58184608001516111f090919063ffffffff16565b505050565b606082826040516020016110bf92919061268f565b604051602081830303815290604052905092915050565b6110ed8284608001516111f090919063ffffffff16565b61110481846080015161121590919063ffffffff16565b505050565b6000611138600360009054906101000a900473ffffffffffffffffffffffffffffffffffffffff1684846112c2565b905092915050565b611148611b07565b611158856080015161010061138e565b508385600001818152505082856020019073ffffffffffffffffffffffffffffffffffffffff16908173ffffffffffffffffffffffffffffffffffffffff16815250508185604001907bffffffffffffffffffffffffffffffffffffffffffffffffffffffff191690817bffffffffffffffffffffffffffffffffffffffffffffffffffffffff191681525050849050949350505050565b6111fd82600383516113f8565b611210818361157d90919063ffffffff16565b505050565b7fffffffffffffffffffffffffffffffffffffffffffffffff000000000000000081121561124c57611247828261159f565b6112be565b67ffffffffffffffff81131561126b576112668282611616565b6112bd565b600081126112845761127f826000836113f8565b6112bc565b6112bb826001837fffffffffffffffffffffffffffffffffffffffffffffffffffffffffffffffff6112b691906126ec565b6113f8565b5b5b5b5050565b60008060045490506001816112d79190612780565b6004819055506000634042994660e01b60008087600001513089604001518760018c6080015160000151604051602401611318989796959493929190612875565b604051602081830303815290604052907bffffffffffffffffffffffffffffffffffffffffffffffffffffffff19166020820180517bffffffffffffffffffffffffffffffffffffffffffffffffffffffff8381831617835250505050905061138386838684611662565b925050509392505050565b611396611b74565b60006020836113a59190612929565b146113d1576020826113b79190612929565b60206113c3919061295a565b826113ce9190612780565b91505b81836020018181525050604051808452600081528281016020016040525082905092915050565b60178167ffffffffffffffff161161142f576114298160058460ff16901b60ff16178461180690919063ffffffff16565b50611578565b60ff8167ffffffffffffffff16116114855761145e601860058460ff16901b178461180690919063ffffffff16565b5061147f8167ffffffffffffffff166001856118269092919063ffffffff16565b50611577565b61ffff8167ffffffffffffffff16116114dc576114b5601960058460ff16901b178461180690919063ffffffff16565b506114d68167ffffffffffffffff166002856118269092919063ffffffff16565b50611576565b63ffffffff8167ffffffffffffffff16116115355761150e601a60058460ff16901b178461180690919063ffffffff16565b5061152f8167ffffffffffffffff166004856118269092919063ffffffff16565b50611575565b611552601b60058460ff16901b178461180690919063ffffffff16565b506115738167ffffffffffffffff166008856118269092919063ffffffff16565b505b5b5b5b505050565b611585611b74565b61159783846000015151848551611848565b905092915050565b6115bd60036005600660ff16901b178361180690919063ffffffff16565b5061161282827fffffffffffffffffffffffffffffffffffffffffffffffffffffffffffffffff6115ee91906126ec565b6040516020016115fe9190611f22565b604051602081830303815290604052611937565b5050565b61163460026005600660ff16901b178361180690919063ffffffff16565b5061165e828260405160200161164a9190611f22565b604051602081830303815290604052611937565b5050565b60003084604051602001611677929190612a47565b604051602081830303815290604052805190602001209050846005600083815260200190815260200160002060006101000a81548173ffffffffffffffffffffffffffffffffffffffff021916908373ffffffffffffffffffffffffffffffffffffffff160217905550807fb5e6e01e79f91267dc17b4e6314d5d4d03593d2ceee0fbb452b750bd70ea5af960405160405180910390a2600260009054906101000a900473ffffffffffffffffffffffffffffffffffffffff1673ffffffffffffffffffffffffffffffffffffffff16634000aea08685856040518463ffffffff1660e01b815260040161176d93929190612a73565b602060405180830381600087803b15801561178757600080fd5b505af115801561179b573d6000803e3d6000fd5b505050506040513d601f19601f820116820180604052508101906117bf9190612213565b6117fe576040517f08c379a00000000000000000000000000000000000000000000000000000000081526004016117f590612b23565b60405180910390fd5b949350505050565b61180e611b74565b61181e838460000151518461195c565b905092915050565b61182e611b74565b61183f8485600001515185856119b3565b90509392505050565b611850611b74565b825182111561185e57600080fd5b8460200151828561186f9190612780565b11156118a4576118a38560026118948860200151888761188f9190612780565b611a41565b61189e9190612b43565b611a5d565b5b6000808651805187602083010193508088870111156118c35787860182525b60208701925050505b6020841061190a57805182526020826118e59190612780565b91506020816118f49190612780565b9050602084611903919061295a565b93506118cc565b60006001856020036101000a03905080198251168184511681811785525050508692505050949350505050565b61194482600283516113f8565b611957818361157d90919063ffffffff16565b505050565b611964611b74565b8360200151831061198a5761198984600286602001516119849190612b43565b611a5d565b5b83518051602085830101848153818614156119a6576001820183525b5050508390509392505050565b6119bb611b74565b846020015184836119cc9190612780565b11156119f4576119f385600286856119e49190612780565b6119ee9190612b43565b611a5d565b5b6000600183610100611a069190612cd0565b611a10919061295a565b90508551838682010185831982511617815281518588011115611a335784870182525b505085915050949350505050565b600081831115611a5357829050611a57565b8190505b92915050565b600082600001519050611a70838361138e565b50611a7b838261157d565b50505050565b828054611a8d906120d2565b90600052602060002090601f016020900481019282611aaf5760008555611af6565b82601f10611ac857805160ff1916838001178555611af6565b82800160010185558215611af6579182015b82811115611af5578251825591602001919060010190611ada565b5b509050611b039190611b8e565b5090565b6040518060a0016040528060008019168152602001600073ffffffffffffffffffffffffffffffffffffffff16815260200160007bffffffffffffffffffffffffffffffffffffffffffffffffffffffff1916815260200160008152602001611b6e611b74565b81525090565b604051806040016040528060608152602001600081525090565b5b80821115611ba7576000816000905550600101611b8f565b5090565b6000604051905090565b600080fd5b600080fd5b6000819050919050565b611bd281611bbf565b8114611bdd57600080fd5b50565b600081359050611bef81611bc9565b92915050565b6000819050919050565b611c0881611bf5565b8114611c1357600080fd5b50565b600081359050611c2581611bff565b92915050565b60008060408385031215611c4257611c41611bb5565b5b6000611c5085828601611be0565b9250506020611c6185828601611c16565b9150509250929050565b600073ffffffffffffffffffffffffffffffffffffffff82169050919050565b6000611c9682611c6b565b9050919050565b611ca681611c8b565b8114611cb157600080fd5b50565b600081359050611cc381611c9d565b92915050565b600060208284031215611cdf57611cde611bb5565b5b6000611ced84828501611cb4565b91505092915050565b600080fd5b600080fd5b6000601f19601f8301169050919050565b7f4e487b7100000000000000000000000000000000000000000000000000000000600052604160045260246000fd5b611d4982611d00565b810181811067ffffffffffffffff82111715611d6857611d67611d11565b5b80604052505050565b6000611d7b611bab565b9050611d878282611d40565b919050565b600067ffffffffffffffff821115611da757611da6611d11565b5b611db082611d00565b9050602081019050919050565b82818337600083830152505050565b6000611ddf611dda84611d8c565b611d71565b905082815260208101848484011115611dfb57611dfa611cfb565b5b611e06848285611dbd565b509392505050565b600082601f830112611e2357611e22611cf6565b5b8135611e33848260208601611dcc565b91505092915050565b60008060008060808587031215611e5657611e55611bb5565b5b600085013567ffffffffffffffff811115611e7457611e73611bba565b5b611e8087828801611e0e565b945050602085013567ffffffffffffffff811115611ea157611ea0611bba565b5b611ead87828801611e0e565b935050604085013567ffffffffffffffff811115611ece57611ecd611bba565b5b611eda87828801611e0e565b925050606085013567ffffffffffffffff811115611efb57611efa611bba565b5b611f0787828801611e0e565b91505092959194509250565b611f1c81611bf5565b82525050565b6000602082019050611f376000830184611f13565b92915050565b600081519050919050565b600082825260208201905092915050565b60005b83811015611f77578082015181840152602081019050611f5c565b83811115611f86576000848401525b50505050565b6000611f9782611f3d565b611fa18185611f48565b9350611fb1818560208601611f59565b611fba81611d00565b840191505092915050565b60006020820190508181036000830152611fdf8184611f8c565b905092915050565b611ff081611c8b565b82525050565b600060208201905061200b6000830184611fe7565b92915050565b7f536f75726365206d75737420626520746865206f7261636c65206f662074686560008201527f2072657175657374000000000000000000000000000000000000000000000000602082015250565b600061206d602883611f48565b915061207882612011565b604082019050919050565b6000602082019050818103600083015261209c81612060565b9050919050565b7f4e487b7100000000000000000000000000000000000000000000000000000000600052602260045260246000fd5b600060028204905060018216806120ea57607f821691505b602082108114156120fe576120fd6120a3565b5b50919050565b7f4d7573742062652070726f706f736564206f776e657200000000000000000000600082015250565b600061213a601683611f48565b915061214582612104565b602082019050919050565b600060208201905081810360008301526121698161212d565b9050919050565b60008151905061217f81611bff565b92915050565b60006020828403121561219b5761219a611bb5565b5b60006121a984828501612170565b91505092915050565b60006040820190506121c76000830185611fe7565b6121d46020830184611f13565b9392505050565b60008115159050919050565b6121f0816121db565b81146121fb57600080fd5b50565b60008151905061220d816121e7565b92915050565b60006020828403121561222957612228611bb5565b5b6000612237848285016121fe565b91505092915050565b7f556e61626c6520746f207472616e736665720000000000000000000000000000600082015250565b6000612276601283611f48565b915061228182612240565b602082019050919050565b600060208201905081810360008301526122a581612269565b9050919050565b7f696e76616c6964206c6174206c6f6e20696e7075740000000000000000000000600082015250565b60006122e2601583611f48565b91506122ed826122ac565b602082019050919050565b60006020820190508181036000830152612311816122d5565b9050919050565b7f4f6e6c792063616c6c61626c65206279206f776e657200000000000000000000600082015250565b600061234e601683611f48565b915061235982612318565b602082019050919050565b6000602082019050818103600083015261237d81612341565b9050919050565b7f43616e6e6f74207472616e7366657220746f2073656c66000000000000000000600082015250565b60006123ba601783611f48565b91506123c582612384565b602082019050919050565b600060208201905081810360008301526123e9816123ad565b9050919050565b600081905092915050565b7f68747470733a2f2f617263686976652d6170692e6f70656e2d6d6574656f2e6360008201527f6f6d2f76312f617263686976653f6c617469747564653d000000000000000000602082015250565b60006124576037836123f0565b9150612462826123fb565b603782019050919050565b600061247882611f3d565b61248281856123f0565b9350612492818560208601611f59565b80840191505092915050565b7f266c6f6e6769747564653d000000000000000000000000000000000000000000600082015250565b60006124d4600b836123f0565b91506124df8261249e565b600b82019050919050565b7f2673746172745f646174653d0000000000000000000000000000000000000000600082015250565b6000612520600c836123f0565b915061252b826124ea565b600c82019050919050565b7f26656e645f646174653d00000000000000000000000000000000000000000000600082015250565b600061256c600a836123f0565b915061257782612536565b600a82019050919050565b7f26686f75726c793d7261696e2c77696e6473706565645f3130306d266461696c60008201527f793d7261696e5f73756d2c77696e6473706565645f31306d5f6d61782674696d60208201527f657a6f6e653d6175746f00000000000000000000000000000000000000000000604082015250565b6000612604604a836123f0565b915061260f82612582565b604a82019050919050565b60006126258261244a565b9150612631828761246d565b915061263c826124c7565b9150612648828661246d565b915061265382612513565b915061265f828561246d565b915061266a8261255f565b9150612676828461246d565b9150612681826125f7565b915081905095945050505050565b600061269b828561246d565b91506126a7828461246d565b91508190509392505050565b6000819050919050565b7f4e487b7100000000000000000000000000000000000000000000000000000000600052601160045260246000fd5b60006126f7826126b3565b9150612702836126b3565b9250827f80000000000000000000000000000000000000000000000000000000000000000182126000841215161561273d5761273c6126bd565b5b827f7fffffffffffffffffffffffffffffffffffffffffffffffffffffffffffffff018213600084121615612775576127746126bd565b5b828203905092915050565b600061278b82611bf5565b915061279683611bf5565b9250827fffffffffffffffffffffffffffffffffffffffffffffffffffffffffffffffff038211156127cb576127ca6126bd565b5b828201905092915050565b6127df81611bbf565b82525050565b60007fffffffff0000000000000000000000000000000000000000000000000000000082169050919050565b61281a816127e5565b82525050565b600081519050919050565b600082825260208201905092915050565b600061284782612820565b612851818561282b565b9350612861818560208601611f59565b61286a81611d00565b840191505092915050565b60006101008201905061288b600083018b611fe7565b612898602083018a611f13565b6128a560408301896127d6565b6128b26060830188611fe7565b6128bf6080830187612811565b6128cc60a0830186611f13565b6128d960c0830185611f13565b81810360e08301526128eb818461283c565b90509998505050505050505050565b7f4e487b7100000000000000000000000000000000000000000000000000000000600052601260045260246000fd5b600061293482611bf5565b915061293f83611bf5565b92508261294f5761294e6128fa565b5b828206905092915050565b600061296582611bf5565b915061297083611bf5565b925082821015612983576129826126bd565b5b828203905092915050565b6000819050919050565b60006129b36129ae6129a984611c6b565b61298e565b611c6b565b9050919050565b60006129c582612998565b9050919050565b60006129d7826129ba565b9050919050565b60008160601b9050919050565b60006129f6826129de565b9050919050565b6000612a08826129eb565b9050919050565b612a20612a1b826129cc565b6129fd565b82525050565b6000819050919050565b612a41612a3c82611bf5565b612a26565b82525050565b6000612a538285612a0f565b601482019150612a638284612a30565b6020820191508190509392505050565b6000606082019050612a886000830186611fe7565b612a956020830185611f13565b8181036040830152612aa7818461283c565b9050949350505050565b7f756e61626c6520746f207472616e73666572416e6443616c6c20746f206f726160008201527f636c650000000000000000000000000000000000000000000000000000000000602082015250565b6000612b0d602383611f48565b9150612b1882612ab1565b604082019050919050565b60006020820190508181036000830152612b3c81612b00565b9050919050565b6000612b4e82611bf5565b9150612b5983611bf5565b9250817fffffffffffffffffffffffffffffffffffffffffffffffffffffffffffffffff0483118215151615612b9257612b916126bd565b5b828202905092915050565b60008160011c9050919050565b6000808291508390505b6001851115612bf457808604811115612bd057612bcf6126bd565b5b6001851615612bdf5780820291505b8081029050612bed85612b9d565b9450612bb4565b94509492505050565b600082612c0d5760019050612cc9565b81612c1b5760009050612cc9565b8160018114612c315760028114612c3b57612c6a565b6001915050612cc9565b60ff841115612c4d57612c4c6126bd565b5b8360020a915084821115612c6457612c636126bd565b5b50612cc9565b5060208310610133831016604e8410600b8410161715612c9f5782820a905083811115612c9a57612c996126bd565b5b612cc9565b612cac8484846001612baa565b92509050818404811115612cc357612cc26126bd565b5b81810290505b9392505050565b6000612cdb82611bf5565b9150612ce683611bf5565b9250612d137fffffffffffffffffffffffffffffffffffffffffffffffffffffffffffffffff8484612bfd565b90509291505056fea2646970667358221220c4ae49dad57ac2097091803593c669f0559ea7d4def8aa0ca7b67a62b4ec3f6564736f6c6343000809003368747470733a2f2f686973746f72792e6f70656e776561746865726d61702e6f72672f646174612f322e352f686973746f72792f636974793f",
  "linkReferences": {},
  "deployedLinkReferences": {}
}