{
  "_format": "hh-sol-artifact-1",
  "contractName": "insuranceRegistery",
  "sourceName": "contracts/insuranceRegistery.sol",
  "abi": [
    {
      "inputs": [
        {
          "internalType": "address",
          "name": "_chainLinkWeatherData",
          "type": "address"
        }
      ],
      "stateMutability": "nonpayable",
      "type": "constructor"
    },
    {
      "anonymous": false,
      "inputs": [
        {
          "indexed": false,
          "internalType": "uint256",
          "name": "InsuranceId",
          "type": "uint256"
        },
        {
          "indexed": false,
          "internalType": "string",
          "name": "massage",
          "type": "string"
        },
        {
          "indexed": false,
          "internalType": "uint256",
          "name": "amount",
          "type": "uint256"
        }
      ],
      "name": "Claimed",
      "type": "event"
    },
    {
      "anonymous": false,
      "inputs": [
        {
          "indexed": false,
          "internalType": "uint256",
          "name": "InsuranceId",
          "type": "uint256"
        },
        {
          "indexed": false,
          "internalType": "uint256",
          "name": "amount",
          "type": "uint256"
        }
      ],
      "name": "insuranceRegistered",
      "type": "event"
    },
    {
      "inputs": [],
      "name": "InsuranceId",
      "outputs": [
        {
          "internalType": "uint256",
          "name": "",
          "type": "uint256"
        }
      ],
      "stateMutability": "view",
      "type": "function"
    },
    {
      "inputs": [],
      "name": "chainLinkWeatherDataAddress",
      "outputs": [
        {
          "internalType": "address",
          "name": "",
          "type": "address"
        }
      ],
      "stateMutability": "view",
      "type": "function"
    },
    {
      "inputs": [
        {
          "internalType": "address",
          "name": "ERC20Address",
          "type": "address"
        },
        {
          "internalType": "uint256",
          "name": "_insuranceId",
          "type": "uint256"
        },
        {
          "internalType": "string",
          "name": "image",
          "type": "string"
        },
        {
          "internalType": "uint256",
          "name": "current",
          "type": "uint256"
        }
      ],
      "name": "claim",
      "outputs": [],
      "stateMutability": "nonpayable",
      "type": "function"
    },
    {
      "inputs": [
        {
          "internalType": "uint256",
          "name": "",
          "type": "uint256"
        }
      ],
      "name": "claimed",
      "outputs": [
        {
          "internalType": "bool",
          "name": "",
          "type": "bool"
        }
      ],
      "stateMutability": "view",
      "type": "function"
    },
    {
      "inputs": [
        {
          "internalType": "uint256",
          "name": "id",
          "type": "uint256"
        }
      ],
      "name": "getInsuranceDetails",
      "outputs": [
        {
          "components": [
            {
              "internalType": "address",
              "name": "userWalletAddress",
              "type": "address"
            },
            {
              "internalType": "uint256",
              "name": "startDate",
              "type": "uint256"
            },
            {
              "internalType": "uint256",
              "name": "maturityDate",
              "type": "uint256"
            },
            {
              "internalType": "uint256",
              "name": "periodTime",
              "type": "uint256"
            },
            {
              "internalType": "uint256",
              "name": "areaOfLand",
              "type": "uint256"
            },
            {
              "internalType": "string",
              "name": "seedsData",
              "type": "string"
            },
            {
              "internalType": "uint256",
              "name": "seedQuantity",
              "type": "uint256"
            },
            {
              "internalType": "string",
              "name": "image",
              "type": "string"
            },
            {
              "internalType": "string",
              "name": "yourAddress",
              "type": "string"
            },
            {
              "internalType": "uint256",
              "name": "Amount",
              "type": "uint256"
            },
            {
              "internalType": "string",
              "name": "lat",
              "type": "string"
            },
            {
              "internalType": "string",
              "name": "long",
              "type": "string"
            }
          ],
          "internalType": "struct insuranceRegistery.insuranceData",
          "name": "",
          "type": "tuple"
        }
      ],
      "stateMutability": "view",
      "type": "function"
    },
    {
      "inputs": [
        {
          "internalType": "uint256",
          "name": "id",
          "type": "uint256"
        }
      ],
      "name": "getLastInstallmentPaidTimestump",
      "outputs": [
        {
          "internalType": "uint256",
          "name": "",
          "type": "uint256"
        }
      ],
      "stateMutability": "view",
      "type": "function"
    },
    {
      "inputs": [
        {
          "internalType": "uint256",
          "name": "id",
          "type": "uint256"
        }
      ],
      "name": "getPaidInstallments",
      "outputs": [
        {
          "internalType": "uint8",
          "name": "",
          "type": "uint8"
        }
      ],
      "stateMutability": "view",
      "type": "function"
    },
    {
      "inputs": [],
      "name": "getUserInsurances",
      "outputs": [
        {
          "internalType": "uint256[]",
          "name": "",
          "type": "uint256[]"
        }
      ],
      "stateMutability": "view",
      "type": "function"
    },
    {
      "inputs": [
        {
          "internalType": "uint256",
          "name": "",
          "type": "uint256"
        }
      ],
      "name": "insuranceDetails",
      "outputs": [
        {
          "internalType": "address",
          "name": "userWalletAddress",
          "type": "address"
        },
        {
          "internalType": "uint256",
          "name": "startDate",
          "type": "uint256"
        },
        {
          "internalType": "uint256",
          "name": "maturityDate",
          "type": "uint256"
        },
        {
          "internalType": "uint256",
          "name": "periodTime",
          "type": "uint256"
        },
        {
          "internalType": "uint256",
          "name": "areaOfLand",
          "type": "uint256"
        },
        {
          "internalType": "string",
          "name": "seedsData",
          "type": "string"
        },
        {
          "internalType": "uint256",
          "name": "seedQuantity",
          "type": "uint256"
        },
        {
          "internalType": "string",
          "name": "image",
          "type": "string"
        },
        {
          "internalType": "string",
          "name": "yourAddress",
          "type": "string"
        },
        {
          "internalType": "uint256",
          "name": "Amount",
          "type": "uint256"
        },
        {
          "internalType": "string",
          "name": "lat",
          "type": "string"
        },
        {
          "internalType": "string",
          "name": "long",
          "type": "string"
        }
      ],
      "stateMutability": "view",
      "type": "function"
    },
    {
      "inputs": [
        {
          "components": [
            {
              "internalType": "address",
              "name": "userWalletAddress",
              "type": "address"
            },
            {
              "internalType": "uint256",
              "name": "startDate",
              "type": "uint256"
            },
            {
              "internalType": "uint256",
              "name": "maturityDate",
              "type": "uint256"
            },
            {
              "internalType": "uint256",
              "name": "periodTime",
              "type": "uint256"
            },
            {
              "internalType": "uint256",
              "name": "areaOfLand",
              "type": "uint256"
            },
            {
              "internalType": "string",
              "name": "seedsData",
              "type": "string"
            },
            {
              "internalType": "uint256",
              "name": "seedQuantity",
              "type": "uint256"
            },
            {
              "internalType": "string",
              "name": "image",
              "type": "string"
            },
            {
              "internalType": "string",
              "name": "yourAddress",
              "type": "string"
            },
            {
              "internalType": "uint256",
              "name": "Amount",
              "type": "uint256"
            },
            {
              "internalType": "string",
              "name": "lat",
              "type": "string"
            },
            {
              "internalType": "string",
              "name": "long",
              "type": "string"
            }
          ],
          "internalType": "struct insuranceRegistery.insuranceData",
          "name": "_insuranceData",
          "type": "tuple"
        }
      ],
      "name": "insuranceRegister",
      "outputs": [
        {
          "internalType": "uint256",
          "name": "_insuranceId",
          "type": "uint256"
        }
      ],
      "stateMutability": "nonpayable",
      "type": "function"
    },
    {
      "inputs": [
        {
          "internalType": "uint256",
          "name": "",
          "type": "uint256"
        }
      ],
      "name": "lastInstallmentPaidTimestump",
      "outputs": [
        {
          "internalType": "uint256",
          "name": "",
          "type": "uint256"
        }
      ],
      "stateMutability": "view",
      "type": "function"
    },
    {
      "inputs": [
        {
          "internalType": "uint256",
          "name": "",
          "type": "uint256"
        }
      ],
      "name": "paidInstallments",
      "outputs": [
        {
          "internalType": "uint8",
          "name": "",
          "type": "uint8"
        }
      ],
      "stateMutability": "view",
      "type": "function"
    },
    {
      "inputs": [
        {
          "internalType": "address",
          "name": "ERC20Address",
          "type": "address"
        },
        {
          "internalType": "uint256",
          "name": "_insuranceId",
          "type": "uint256"
        }
      ],
      "name": "payInstallment",
      "outputs": [],
      "stateMutability": "nonpayable",
      "type": "function"
    },
    {
      "inputs": [
        {
          "internalType": "address",
          "name": "",
          "type": "address"
        },
        {
          "internalType": "uint256",
          "name": "",
          "type": "uint256"
        }
      ],
      "name": "userInsurances",
      "outputs": [
        {
          "internalType": "uint256",
          "name": "",
          "type": "uint256"
        }
      ],
      "stateMutability": "view",
      "type": "function"
    }
  ],
  "bytecode": "0x60806040523480156200001157600080fd5b50604051620038be380380620038be8339818101604052810190620000379190620000f1565b600160008190555080600260006101000a81548173ffffffffffffffffffffffffffffffffffffffff021916908373ffffffffffffffffffffffffffffffffffffffff1602179055505062000123565b600080fd5b600073ffffffffffffffffffffffffffffffffffffffff82169050919050565b6000620000b9826200008c565b9050919050565b620000cb81620000ac565b8114620000d757600080fd5b50565b600081519050620000eb81620000c0565b92915050565b6000602082840312156200010a576200010962000087565b5b60006200011a84828501620000da565b91505092915050565b61378b80620001336000396000f3fe608060405234801561001057600080fd5b50600436106100ea5760003560e01c806369cf8ad71161008c578063ccf46d3411610066578063ccf46d341461028e578063dbe7e3bd146102ac578063f36eeebb146102dc578063ff6ea1e51461030c576100ea565b806369cf8ad714610207578063a86f678f14610237578063b52078d714610253576100ea565b806323d99f2e116100c857806323d99f2e1461016b5780633f0d22b51461018957806346c37acc146101a7578063487e4661146101d7576100ea565b8063014d92d8146100ef578063172605f01461011f578063206ff88f1461013b575b600080fd5b610109600480360381019061010491906123d1565b61033c565b6040516101169190612607565b60405180910390f35b6101396004803603810190610134919061278a565b6106d6565b005b610155600480360381019061015091906123d1565b6114f9565b6040516101629190612829565b60405180910390f35b610173611523565b60405161018091906128f3565b60405180910390f35b6101916115b8565b60405161019e9190612924565b60405180910390f35b6101c160048036038101906101bc9190612af7565b6115de565b6040516101ce9190612b4f565b60405180910390f35b6101f160048036038101906101ec91906123d1565b61183e565b6040516101fe9190612b4f565b60405180910390f35b610221600480360381019061021c91906123d1565b611856565b60405161022e9190612829565b60405180910390f35b610251600480360381019061024c9190612b6a565b611876565b005b61026d600480360381019061026891906123d1565b611e77565b6040516102859c9b9a99989796959493929190612bf4565b60405180910390f35b61029661219f565b6040516102a39190612b4f565b60405180910390f35b6102c660048036038101906102c191906123d1565b6121a5565b6040516102d39190612cec565b60405180910390f35b6102f660048036038101906102f19190612b6a565b6121c5565b6040516103039190612b4f565b60405180910390f35b610326600480360381019061032191906123d1565b6121f6565b6040516103339190612b4f565b60405180910390f35b61034461226d565b60036000838152602001908152602001600020604051806101800160405290816000820160009054906101000a900473ffffffffffffffffffffffffffffffffffffffff1673ffffffffffffffffffffffffffffffffffffffff1673ffffffffffffffffffffffffffffffffffffffff168152602001600182015481526020016002820154815260200160038201548152602001600482015481526020016005820180546103f190612d36565b80601f016020809104026020016040519081016040528092919081815260200182805461041d90612d36565b801561046a5780601f1061043f5761010080835404028352916020019161046a565b820191906000526020600020905b81548152906001019060200180831161044d57829003601f168201915b505050505081526020016006820154815260200160078201805461048d90612d36565b80601f01602080910402602001604051908101604052809291908181526020018280546104b990612d36565b80156105065780601f106104db57610100808354040283529160200191610506565b820191906000526020600020905b8154815290600101906020018083116104e957829003601f168201915b5050505050815260200160088201805461051f90612d36565b80601f016020809104026020016040519081016040528092919081815260200182805461054b90612d36565b80156105985780601f1061056d57610100808354040283529160200191610598565b820191906000526020600020905b81548152906001019060200180831161057b57829003601f168201915b5050505050815260200160098201548152602001600a820180546105bb90612d36565b80601f01602080910402602001604051908101604052809291908181526020018280546105e790612d36565b80156106345780601f1061060957610100808354040283529160200191610634565b820191906000526020600020905b81548152906001019060200180831161061757829003601f168201915b50505050508152602001600b8201805461064d90612d36565b80601f016020809104026020016040519081016040528092919081815260200182805461067990612d36565b80156106c65780601f1061069b576101008083540402835291602001916106c6565b820191906000526020600020905b8154815290600101906020018083116106a957829003601f168201915b5050505050815250509050919050565b6106de612213565b42600560008581526020019081526020016000205410610733576040517f08c379a000000000000000000000000000000000000000000000000000000000815260040161072a90612dda565b60405180910390fd5b600060036000858152602001908152602001600020604051806101800160405290816000820160009054906101000a900473ffffffffffffffffffffffffffffffffffffffff1673ffffffffffffffffffffffffffffffffffffffff1673ffffffffffffffffffffffffffffffffffffffff168152602001600182015481526020016002820154815260200160038201548152602001600482015481526020016005820180546107e290612d36565b80601f016020809104026020016040519081016040528092919081815260200182805461080e90612d36565b801561085b5780601f106108305761010080835404028352916020019161085b565b820191906000526020600020905b81548152906001019060200180831161083e57829003601f168201915b505050505081526020016006820154815260200160078201805461087e90612d36565b80601f01602080910402602001604051908101604052809291908181526020018280546108aa90612d36565b80156108f75780601f106108cc576101008083540402835291602001916108f7565b820191906000526020600020905b8154815290600101906020018083116108da57829003601f168201915b5050505050815260200160088201805461091090612d36565b80601f016020809104026020016040519081016040528092919081815260200182805461093c90612d36565b80156109895780601f1061095e57610100808354040283529160200191610989565b820191906000526020600020905b81548152906001019060200180831161096c57829003601f168201915b5050505050815260200160098201548152602001600a820180546109ac90612d36565b80601f01602080910402602001604051908101604052809291908181526020018280546109d890612d36565b8015610a255780601f106109fa57610100808354040283529160200191610a25565b820191906000526020600020905b815481529060010190602001808311610a0857829003601f168201915b50505050508152602001600b82018054610a3e90612d36565b80601f0160208091040260200160405190810160405280929190818152602001828054610a6a90612d36565b8015610ab75780601f10610a8c57610100808354040283529160200191610ab7565b820191906000526020600020905b815481529060010190602001808311610a9a57829003601f168201915b5050505050815250509050600015156007600086815260200190815260200160002060009054906101000a900460ff16151514610b29576040517f08c379a0000000000000000000000000000000000000000000000000000000008152600401610b2090612e46565b60405180910390fd5b81816040015110158015610b41575081816020015111155b610b80576040517f08c379a0000000000000000000000000000000000000000000000000000000008152600401610b7790612eb2565b60405180910390fd5b6000600260009054906101000a900473ffffffffffffffffffffffffffffffffffffffff1673ffffffffffffffffffffffffffffffffffffffff1663bbd87cd76040518163ffffffff1660e01b815260040160206040518083038186803b158015610bea57600080fd5b505afa158015610bfe573d6000803e3d6000fd5b505050506040513d601f19601f82011682018060405250810190610c229190612ee7565b90506000600260009054906101000a900473ffffffffffffffffffffffffffffffffffffffff1673ffffffffffffffffffffffffffffffffffffffff166328ae19026040518163ffffffff1660e01b815260040160206040518083038186803b158015610c8e57600080fd5b505afa158015610ca2573d6000803e3d6000fd5b505050506040513d601f19601f82011682018060405250810190610cc69190612ee7565b90506000600260009054906101000a900473ffffffffffffffffffffffffffffffffffffffff1673ffffffffffffffffffffffffffffffffffffffff1663a487440a6040518163ffffffff1660e01b815260040160006040518083038186803b158015610d3257600080fd5b505afa158015610d46573d6000803e3d6000fd5b505050506040513d6000823e3d601f19601f82011682018060405250810190610d6f9190612f84565b90506000600260009054906101000a900473ffffffffffffffffffffffffffffffffffffffff1673ffffffffffffffffffffffffffffffffffffffff166347d3fa6d6040518163ffffffff1660e01b815260040160006040518083038186803b158015610ddb57600080fd5b505afa158015610def573d6000803e3d6000fd5b505050506040513d6000823e3d601f19601f82011682018060405250810190610e189190612f84565b9050600085610140015190506000866101600151905081805190602001208480519060200120148015610e58575080805190602001208380519060200120145b610e97576040517f08c379a0000000000000000000000000000000000000000000000000000000008152600401610e8e90613019565b60405180910390fd5b605886101580610ea957506101f58510155b1561119857600073__$61c3dbfad47bb5d5260aee114f5f9d6488$__633fb34003896101200151607d6040518363ffffffff1660e01b8152600401610eef92919061309b565b60206040518083038186803b158015610f0757600080fd5b505af4158015610f1b573d6000803e3d6000fd5b505050506040513d601f19601f82011682018060405250810190610f3f9190612ee7565b90503373ffffffffffffffffffffffffffffffffffffffff16886000015173ffffffffffffffffffffffffffffffffffffffff1614610fb3576040517f08c379a0000000000000000000000000000000000000000000000000000000008152600401610faa90613110565b60405180910390fd5b600073ffffffffffffffffffffffffffffffffffffffff168c73ffffffffffffffffffffffffffffffffffffffff161415611023576040517f08c379a000000000000000000000000000000000000000000000000000000000815260040161101a906131a2565b60405180910390fd5b8b73ffffffffffffffffffffffffffffffffffffffff1663a9059cbb33838b606001518c610120015161105691906131f1565b611060919061324b565b6040518363ffffffff1660e01b815260040161107d9291906132a1565b602060405180830381600087803b15801561109757600080fd5b505af11580156110ab573d6000803e3d6000fd5b505050506040513d601f19601f820116820180604052508101906110cf91906132f6565b61110e576040517f08c379a00000000000000000000000000000000000000000000000000000000081526004016111059061336f565b60405180910390fd5b6001600760008d815260200190815260200160002060006101000a81548160ff0219169083151502179055507f9eb9ef6bc25ab8bf0bc9a4907fa27dab76ea367b559d928306db5ac5b2656e348b828a606001518b610120015161117291906131f1565b61117c919061324b565b60405161118a9291906133db565b60405180910390a1506114e4565b602e861015806111aa57506101918510155b156114a857600073__$61c3dbfad47bb5d5260aee114f5f9d6488$__633fb3400389606001518a61012001516111e091906131f1565b60646040518363ffffffff1660e01b81526004016111ff929190613452565b60206040518083038186803b15801561121757600080fd5b505af415801561122b573d6000803e3d6000fd5b505050506040513d601f19601f8201168201806040525081019061124f9190612ee7565b90503373ffffffffffffffffffffffffffffffffffffffff16886000015173ffffffffffffffffffffffffffffffffffffffff16146112c3576040517f08c379a00000000000000000000000000000000000000000000000000000000081526004016112ba90613110565b60405180910390fd5b600073ffffffffffffffffffffffffffffffffffffffff168c73ffffffffffffffffffffffffffffffffffffffff161415611333576040517f08c379a000000000000000000000000000000000000000000000000000000000815260040161132a906131a2565b60405180910390fd5b8b73ffffffffffffffffffffffffffffffffffffffff1663a9059cbb33838b606001518c610120015161136691906131f1565b611370919061324b565b6040518363ffffffff1660e01b815260040161138d9291906132a1565b602060405180830381600087803b1580156113a757600080fd5b505af11580156113bb573d6000803e3d6000fd5b505050506040513d601f19601f820116820180604052508101906113df91906132f6565b61141e576040517f08c379a00000000000000000000000000000000000000000000000000000000081526004016114159061336f565b60405180910390fd5b6001600760008d815260200190815260200160002060006101000a81548160ff0219169083151502179055507f9eb9ef6bc25ab8bf0bc9a4907fa27dab76ea367b559d928306db5ac5b2656e348b828a606001518b610120015161148291906131f1565b61148c919061324b565b60405161149a9291906133db565b60405180910390a1506114e3565b7f9eb9ef6bc25ab8bf0bc9a4907fa27dab76ea367b559d928306db5ac5b2656e348a60006040516114da929190613502565b60405180910390a15b5b505050505050506114f3612263565b50505050565b60006004600083815260200190815260200160002060009054906101000a900460ff169050919050565b6060600660003373ffffffffffffffffffffffffffffffffffffffff1673ffffffffffffffffffffffffffffffffffffffff1681526020019081526020016000208054806020026020016040519081016040528092919081815260200182805480156115ae57602002820191906000526020600020905b81548152602001906001019080831161159a575b5050505050905090565b600260009054906101000a900473ffffffffffffffffffffffffffffffffffffffff1681565b60008073ffffffffffffffffffffffffffffffffffffffff163373ffffffffffffffffffffffffffffffffffffffff16141561164f576040517f08c379a00000000000000000000000000000000000000000000000000000000081526004016116469061358a565b60405180910390fd5b60016000815461165e906135aa565b9190508190559050816003600083815260200190815260200160002060008201518160000160006101000a81548173ffffffffffffffffffffffffffffffffffffffff021916908373ffffffffffffffffffffffffffffffffffffffff1602179055506020820151816001015560408201518160020155606082015181600301556080820151816004015560a08201518160050190805190602001906117059291906122e4565b5060c0820151816006015560e082015181600701908051906020019061172c9291906122e4565b5061010082015181600801908051906020019061174a9291906122e4565b50610120820151816009015561014082015181600a0190805190602001906117739291906122e4565b5061016082015181600b0190805190602001906117919291906122e4565b50905050600660003373ffffffffffffffffffffffffffffffffffffffff1673ffffffffffffffffffffffffffffffffffffffff1681526020019081526020016000208190806001815401808255809150506001900390600052602060002001600090919091909150557f75f0e88e04463f86c7e1e71465891020fa84744536526c63c08c967fcb3acbfc818361012001516040516118319291906135f3565b60405180910390a1919050565b60056020528060005260406000206000915090505481565b60046020528060005260406000206000915054906101000a900460ff1681565b61187e612213565b600060036000838152602001908152602001600020604051806101800160405290816000820160009054906101000a900473ffffffffffffffffffffffffffffffffffffffff1673ffffffffffffffffffffffffffffffffffffffff1673ffffffffffffffffffffffffffffffffffffffff1681526020016001820154815260200160028201548152602001600382015481526020016004820154815260200160058201805461192d90612d36565b80601f016020809104026020016040519081016040528092919081815260200182805461195990612d36565b80156119a65780601f1061197b576101008083540402835291602001916119a6565b820191906000526020600020905b81548152906001019060200180831161198957829003601f168201915b50505050508152602001600682015481526020016007820180546119c990612d36565b80601f01602080910402602001604051908101604052809291908181526020018280546119f590612d36565b8015611a425780601f10611a1757610100808354040283529160200191611a42565b820191906000526020600020905b815481529060010190602001808311611a2557829003601f168201915b50505050508152602001600882018054611a5b90612d36565b80601f0160208091040260200160405190810160405280929190818152602001828054611a8790612d36565b8015611ad45780601f10611aa957610100808354040283529160200191611ad4565b820191906000526020600020905b815481529060010190602001808311611ab757829003601f168201915b5050505050815260200160098201548152602001600a82018054611af790612d36565b80601f0160208091040260200160405190810160405280929190818152602001828054611b2390612d36565b8015611b705780601f10611b4557610100808354040283529160200191611b70565b820191906000526020600020905b815481529060010190602001808311611b5357829003601f168201915b50505050508152602001600b82018054611b8990612d36565b80601f0160208091040260200160405190810160405280929190818152602001828054611bb590612d36565b8015611c025780601f10611bd757610100808354040283529160200191611c02565b820191906000526020600020905b815481529060010190602001808311611be557829003601f168201915b50505050508152505090503373ffffffffffffffffffffffffffffffffffffffff16816000015173ffffffffffffffffffffffffffffffffffffffff1614611c7f576040517f08c379a0000000000000000000000000000000000000000000000000000000008152600401611c7690613110565b60405180910390fd5b600073ffffffffffffffffffffffffffffffffffffffff168373ffffffffffffffffffffffffffffffffffffffff161415611cef576040517f08c379a0000000000000000000000000000000000000000000000000000000008152600401611ce6906131a2565b60405180910390fd5b4281604001511015611d36576040517f08c379a0000000000000000000000000000000000000000000000000000000008152600401611d2d90613668565b60405180910390fd5b60046000838152602001908152602001600020600081819054906101000a900460ff1680929190611d6690613688565b91906101000a81548160ff021916908360ff160217905550504260056000848152602001908152602001600020819055508273ffffffffffffffffffffffffffffffffffffffff166323b872dd33308461012001516040518463ffffffff1660e01b8152600401611dd9939291906136b2565b602060405180830381600087803b158015611df357600080fd5b505af1158015611e07573d6000803e3d6000fd5b505050506040513d601f19601f82011682018060405250810190611e2b91906132f6565b611e6a576040517f08c379a0000000000000000000000000000000000000000000000000000000008152600401611e619061336f565b60405180910390fd5b50611e73612263565b5050565b60036020528060005260406000206000915090508060000160009054906101000a900473ffffffffffffffffffffffffffffffffffffffff1690806001015490806002015490806003015490806004015490806005018054611ed890612d36565b80601f0160208091040260200160405190810160405280929190818152602001828054611f0490612d36565b8015611f515780601f10611f2657610100808354040283529160200191611f51565b820191906000526020600020905b815481529060010190602001808311611f3457829003601f168201915b505050505090806006015490806007018054611f6c90612d36565b80601f0160208091040260200160405190810160405280929190818152602001828054611f9890612d36565b8015611fe55780601f10611fba57610100808354040283529160200191611fe5565b820191906000526020600020905b815481529060010190602001808311611fc857829003601f168201915b505050505090806008018054611ffa90612d36565b80601f016020809104026020016040519081016040528092919081815260200182805461202690612d36565b80156120735780601f1061204857610100808354040283529160200191612073565b820191906000526020600020905b81548152906001019060200180831161205657829003601f168201915b50505050509080600901549080600a01805461208e90612d36565b80601f01602080910402602001604051908101604052809291908181526020018280546120ba90612d36565b80156121075780601f106120dc57610100808354040283529160200191612107565b820191906000526020600020905b8154815290600101906020018083116120ea57829003601f168201915b50505050509080600b01805461211c90612d36565b80601f016020809104026020016040519081016040528092919081815260200182805461214890612d36565b80156121955780601f1061216a57610100808354040283529160200191612195565b820191906000526020600020905b81548152906001019060200180831161217857829003601f168201915b505050505090508c565b60015481565b60076020528060005260406000206000915054906101000a900460ff1681565b600660205281600052604060002081815481106121e157600080fd5b90600052602060002001600091509150505481565b600060056000838152602001908152602001600020549050919050565b60026000541415612259576040517f08c379a000000000000000000000000000000000000000000000000000000000815260040161225090613735565b60405180910390fd5b6002600081905550565b6001600081905550565b604051806101800160405280600073ffffffffffffffffffffffffffffffffffffffff16815260200160008152602001600081526020016000815260200160008152602001606081526020016000815260200160608152602001606081526020016000815260200160608152602001606081525090565b8280546122f090612d36565b90600052602060002090601f0160209004810192826123125760008555612359565b82601f1061232b57805160ff1916838001178555612359565b82800160010185558215612359579182015b8281111561235857825182559160200191906001019061233d565b5b509050612366919061236a565b5090565b5b8082111561238357600081600090555060010161236b565b5090565b6000604051905090565b600080fd5b600080fd5b6000819050919050565b6123ae8161239b565b81146123b957600080fd5b50565b6000813590506123cb816123a5565b92915050565b6000602082840312156123e7576123e6612391565b5b60006123f5848285016123bc565b91505092915050565b600073ffffffffffffffffffffffffffffffffffffffff82169050919050565b6000612429826123fe565b9050919050565b6124398161241e565b82525050565b6124488161239b565b82525050565b600081519050919050565b600082825260208201905092915050565b60005b8381101561248857808201518184015260208101905061246d565b83811115612497576000848401525b50505050565b6000601f19601f8301169050919050565b60006124b98261244e565b6124c38185612459565b93506124d381856020860161246a565b6124dc8161249d565b840191505092915050565b6000610180830160008301516125006000860182612430565b506020830151612513602086018261243f565b506040830151612526604086018261243f565b506060830151612539606086018261243f565b50608083015161254c608086018261243f565b5060a083015184820360a086015261256482826124ae565b91505060c083015161257960c086018261243f565b5060e083015184820360e086015261259182826124ae565b9150506101008301518482036101008601526125ad82826124ae565b9150506101208301516125c461012086018261243f565b506101408301518482036101408601526125de82826124ae565b9150506101608301518482036101608601526125fa82826124ae565b9150508091505092915050565b6000602082019050818103600083015261262181846124e7565b905092915050565b6126328161241e565b811461263d57600080fd5b50565b60008135905061264f81612629565b92915050565b600080fd5b600080fd5b7f4e487b7100000000000000000000000000000000000000000000000000000000600052604160045260246000fd5b6126978261249d565b810181811067ffffffffffffffff821117156126b6576126b561265f565b5b80604052505050565b60006126c9612387565b90506126d5828261268e565b919050565b600067ffffffffffffffff8211156126f5576126f461265f565b5b6126fe8261249d565b9050602081019050919050565b82818337600083830152505050565b600061272d612728846126da565b6126bf565b9050828152602081018484840111156127495761274861265a565b5b61275484828561270b565b509392505050565b600082601f83011261277157612770612655565b5b813561278184826020860161271a565b91505092915050565b600080600080608085870312156127a4576127a3612391565b5b60006127b287828801612640565b94505060206127c3878288016123bc565b935050604085013567ffffffffffffffff8111156127e4576127e3612396565b5b6127f08782880161275c565b9250506060612801878288016123bc565b91505092959194509250565b600060ff82169050919050565b6128238161280d565b82525050565b600060208201905061283e600083018461281a565b92915050565b600081519050919050565b600082825260208201905092915050565b6000819050602082019050919050565b600061287c838361243f565b60208301905092915050565b6000602082019050919050565b60006128a082612844565b6128aa818561284f565b93506128b583612860565b8060005b838110156128e65781516128cd8882612870565b97506128d883612888565b9250506001810190506128b9565b5085935050505092915050565b6000602082019050818103600083015261290d8184612895565b905092915050565b61291e8161241e565b82525050565b60006020820190506129396000830184612915565b92915050565b600080fd5b600080fd5b600061018082840312156129605761295f61293f565b5b61296b6101806126bf565b9050600061297b84828501612640565b600083015250602061298f848285016123bc565b60208301525060406129a3848285016123bc565b60408301525060606129b7848285016123bc565b60608301525060806129cb848285016123bc565b60808301525060a082013567ffffffffffffffff8111156129ef576129ee612944565b5b6129fb8482850161275c565b60a08301525060c0612a0f848285016123bc565b60c08301525060e082013567ffffffffffffffff811115612a3357612a32612944565b5b612a3f8482850161275c565b60e08301525061010082013567ffffffffffffffff811115612a6457612a63612944565b5b612a708482850161275c565b61010083015250610120612a86848285016123bc565b6101208301525061014082013567ffffffffffffffff811115612aac57612aab612944565b5b612ab88482850161275c565b6101408301525061016082013567ffffffffffffffff811115612ade57612add612944565b5b612aea8482850161275c565b6101608301525092915050565b600060208284031215612b0d57612b0c612391565b5b600082013567ffffffffffffffff811115612b2b57612b2a612396565b5b612b3784828501612949565b91505092915050565b612b498161239b565b82525050565b6000602082019050612b646000830184612b40565b92915050565b60008060408385031215612b8157612b80612391565b5b6000612b8f85828601612640565b9250506020612ba0858286016123bc565b9150509250929050565b600082825260208201905092915050565b6000612bc68261244e565b612bd08185612baa565b9350612be081856020860161246a565b612be98161249d565b840191505092915050565b600061018082019050612c0a600083018f612915565b612c17602083018e612b40565b612c24604083018d612b40565b612c31606083018c612b40565b612c3e608083018b612b40565b81810360a0830152612c50818a612bbb565b9050612c5f60c0830189612b40565b81810360e0830152612c718188612bbb565b9050818103610100830152612c868187612bbb565b9050612c96610120830186612b40565b818103610140830152612ca98185612bbb565b9050818103610160830152612cbe8184612bbb565b90509d9c50505050505050505050505050565b60008115159050919050565b612ce681612cd1565b82525050565b6000602082019050612d016000830184612cdd565b92915050565b7f4e487b7100000000000000000000000000000000000000000000000000000000600052602260045260246000fd5b60006002820490506001821680612d4e57607f821691505b60208210811415612d6257612d61612d07565b5b50919050565b7f596f752061726520636c61696d696e672061742077726f6e672074696d65737460008201527f616d700000000000000000000000000000000000000000000000000000000000602082015250565b6000612dc4602383612baa565b9150612dcf82612d68565b604082019050919050565b60006020820190508181036000830152612df381612db7565b9050919050565b7f596f75206861766520616c726561647920636c61696d65640000000000000000600082015250565b6000612e30601883612baa565b9150612e3b82612dfa565b602082019050919050565b60006020820190508181036000830152612e5f81612e23565b9050919050565b7f596f7572206d617475726974792064617465206973206f766572000000000000600082015250565b6000612e9c601a83612baa565b9150612ea782612e66565b602082019050919050565b60006020820190508181036000830152612ecb81612e8f565b9050919050565b600081519050612ee1816123a5565b92915050565b600060208284031215612efd57612efc612391565b5b6000612f0b84828501612ed2565b91505092915050565b6000612f27612f22846126da565b6126bf565b905082815260208101848484011115612f4357612f4261265a565b5b612f4e84828561246a565b509392505050565b600082601f830112612f6b57612f6a612655565b5b8151612f7b848260208601612f14565b91505092915050565b600060208284031215612f9a57612f99612391565b5b600082015167ffffffffffffffff811115612fb857612fb7612396565b5b612fc484828501612f56565b91505092915050565b7f4c6f636174696f6e2073686f756c642062652073616d65000000000000000000600082015250565b6000613003601783612baa565b915061300e82612fcd565b602082019050919050565b6000602082019050818103600083015261303281612ff6565b9050919050565b6130428161239b565b82525050565b6000819050919050565b600061ffff82169050919050565b6000819050919050565b600061308561308061307b84613048565b613060565b613052565b9050919050565b6130958161306a565b82525050565b60006040820190506130b06000830185613039565b6130bd602083018461308c565b9392505050565b7f54686973206973206e6f7420796f757220496e737572616e6365000000000000600082015250565b60006130fa601a83612baa565b9150613105826130c4565b602082019050919050565b60006020820190508181036000830152613129816130ed565b9050919050565b7f796f752063616e277420646f20746869732077697468207a65726f206164647260008201527f6573730000000000000000000000000000000000000000000000000000000000602082015250565b600061318c602383612baa565b915061319782613130565b604082019050919050565b600060208201905081810360008301526131bb8161317f565b9050919050565b7f4e487b7100000000000000000000000000000000000000000000000000000000600052601160045260246000fd5b60006131fc8261239b565b91506132078361239b565b9250817fffffffffffffffffffffffffffffffffffffffffffffffffffffffffffffffff04831182151516156132405761323f6131c2565b5b828202905092915050565b60006132568261239b565b91506132618361239b565b9250827fffffffffffffffffffffffffffffffffffffffffffffffffffffffffffffffff03821115613296576132956131c2565b5b828201905092915050565b60006040820190506132b66000830185612915565b6132c36020830184612b40565b9392505050565b6132d381612cd1565b81146132de57600080fd5b50565b6000815190506132f0816132ca565b92915050565b60006020828403121561330c5761330b612391565b5b600061331a848285016132e1565b91505092915050565b7f556e61626c6520746f2074616e736665722046756e6400000000000000000000600082015250565b6000613359601683612baa565b915061336482613323565b602082019050919050565b600060208201905081810360008301526133888161334c565b9050919050565b7f7375636365737300000000000000000000000000000000000000000000000000600082015250565b60006133c5600783612baa565b91506133d08261338f565b602082019050919050565b60006060820190506133f06000830185612b40565b8181036020830152613401816133b8565b90506134106040830184612b40565b9392505050565b6000819050919050565b600061343c61343761343284613417565b613060565b613052565b9050919050565b61344c81613421565b82525050565b60006040820190506134676000830185613039565b6134746020830184613443565b9392505050565b7f756e737563636573730000000000000000000000000000000000000000000000600082015250565b60006134b1600983612baa565b91506134bc8261347b565b602082019050919050565b6000819050919050565b60006134ec6134e76134e2846134c7565b613060565b61239b565b9050919050565b6134fc816134d1565b82525050565b60006060820190506135176000830185612b40565b8181036020830152613528816134a4565b905061353760408301846134f3565b9392505050565b7f46616b6520416464726573730000000000000000000000000000000000000000600082015250565b6000613574600c83612baa565b915061357f8261353e565b602082019050919050565b600060208201905081810360008301526135a381613567565b9050919050565b60006135b58261239b565b91507fffffffffffffffffffffffffffffffffffffffffffffffffffffffffffffffff8214156135e8576135e76131c2565b5b600182019050919050565b60006040820190506136086000830185612b40565b6136156020830184612b40565b9392505050565b7f796f7572206d617475726974792044617465206973206f766572000000000000600082015250565b6000613652601a83612baa565b915061365d8261361c565b602082019050919050565b6000602082019050818103600083015261368181613645565b9050919050565b60006136938261280d565b915060ff8214156136a7576136a66131c2565b5b600182019050919050565b60006060820190506136c76000830186612915565b6136d46020830185612915565b6136e16040830184612b40565b949350505050565b7f5265656e7472616e637947756172643a207265656e7472616e742063616c6c00600082015250565b600061371f601f83612baa565b915061372a826136e9565b602082019050919050565b6000602082019050818103600083015261374e81613712565b905091905056fea2646970667358221220a90308e2ade194b14d721ce819237db66be17cf53c0a1b871a93ec0b073f9c9964736f6c63430008090033",
  "linkReferences": {
    "contracts/Libraries/LibCalculations.sol": {
      "LibCalculations": [
        {
          "length": 20,
          "start": 4069
        },
        {
          "length": 20,
          "start": 4838
        }
      ]
    }
  },
  "deployedLinkReferences": {
    "contracts/Libraries/LibCalculations.sol": {
      "LibCalculations": [
        {
          "length": 20,
          "start": 3762
        },
        {
          "length": 20,
          "start": 4531
        }
      ]
    }
  }
}